:100000000C9477010C94A8010C94A8010C94A801FD
:100010000C94A8010C94A8010C94A8010C94A801BC
:100020000C94A8010C94A8010C94A8010C94A801AC
:100030000C94A8010C94A8010C94A8010C94A8019C
:100040000C94A8010C94A8010C94A8010C94A8018C
:100050000C94A8010C94A8010C94A8010C943B04E6
:100060000C94A8010C94AF040C9485040C94A80182
:100070000C94A8010C94A8010C94A8010C94A8015C
:100080000C94A8010C94A8010C94A8010C94A8014C
:100090000C94A8010C94A8010C94A8010C94A8013C
:1000A0000C94A8010C94A8010C94A8010C94A8012C
:1000B0000C94A8010C94A8010C94A8010C94A8011C
:1000C0000C94A8010C94A8010C94A8010C94A8010C
:1000D0000C94A8010C94A8010C94A8010C94A801FC
:1000E0000C94A80108000000BE922449123EABAA5D
:1000F000AA2ABECDCCCC4C3E00000080BEABAAAA42
:10010000AA3E00000000BF000000803F0000000089
:1001100000084178D3BB4387D1133D190E3CC3BDC2
:100120004282AD2B3E68EC8276BED98FE1A93E4C6F
:1001300080EFFFBE01C4FF7F3F00000000000C9471
:1001400041070C9466060C942D070C9422070C941E
:100150008D020C9459070C94FA010C947B060C94B4
:1001600068070C9445070C946F060C9408020C94D5
:10017000D7010C94BC060C94A4060C94B0060C9405
:10018000C8060C9433070C9487060C944F070C9404
:1001900033060C940A070C94AA010C944B070C9498
:1001A000D4060C945D060C94E6010C9493060C9412
:1001B0001E070C9439060C94E0060C948E050C94E2
:1001C00053070C942A070C9426070C943D070C94B3
:1001D00045060C9440020C940F070C9437070C94BE
:1001E00051060C945D0700002100240027002A001E
:1001F0002D003000330001010000040107010A0155
:1002000000002200250028002B002E0031003400C1
:1002100002010000050108010B01050505050705A0
:1002200008080808020202020A0A08080404040472
:10023000010101010101010103030303030303039E
:10024000040707070C0C0C0C0C0C0C0C020202022D
:1002500006060606060606060B0B0B0B0B0B0B0B16
:1002600001021020200808102040102040800201C8
:1002700002010804020101020408102040808040AD
:1002800020100804020180040201804020100804AC
:10029000020108040201010204081020408001024A
:1002A00004081020408000000A0B02090C0D0E0803
:1002B000070304010000000000000000000000002F
:1002C000000000000000000000000000000000002E
:1002D00000001211100000000000000000000000EB
:1002E000000000000000000000000000680711246A
:1002F0001FBECFEFD1E2DEBFCDBF00E00CBF12E0EA
:10030000A0E0B2E0E6E7F5E100E00BBF02C0079035
:100310000D92A238B107D9F723E0A2E8B2E001C0FC
:100320001D92A837B207E1F711E0C7E7D1E000E07E
:1003300006C021970109802FFE010E94B10AC6372D
:10034000D10780E00807A9F70E94E5040C94B90AD8
:100350000C940000AF92BF92CF92DF92EF92FF9287
:100360000F931F93CF93DF936C017B018B01040FDD
:10037000151FEB015E01AE18BF08C017D10759F079
:100380006991D601ED91FC910190F081E02DC601BB
:100390001995892B79F7C501DF91CF911F910F91A5
:1003A000FF90EF90DF90CF90BF90AF900895FC0149
:1003B000538D448D252F30E0842F90E0821B930BCA
:1003C000541710F0CF96089501970895FC01918D70
:1003D000828D981761F0A28DAE0FBF2FB11D5D9673
:1003E0008C91928D9F5F9F73928F90E008958FEF15
:1003F0009FEF0895FC01918D828D981731F0828DC9
:10040000E80FF11D858D90E008958FEF9FEF08951F
:10041000FC01918D228D892F90E0805C9F4F821B83
:1004200091098F73992708958BED92E00E9408023D
:1004300021E0892B09F420E0822F0895FC01A48D8E
:10044000A80FB92FB11DA35ABF4F2C91848D90E0F6
:1004500001968F739927848FA689B7892C93A089D9
:10046000B1898C91837080648C93938D848D981363
:1004700006C00288F389E02D80818F7D80830895F6
:10048000EF92FF920F931F93CF93DF93EC0181E0E4
:10049000888F9B8D8C8D98131AC0E889F98980818B
:1004A00085FF15C09FB7F894EE89FF896083E889BE
:1004B000F98980818370806480839FBF81E090E0B0
:1004C000DF91CF911F910F91FF90EF900895F62E3D
:1004D0000B8D10E00F5F1F4F0F731127E02E8C8DD7
:1004E0008E110CC00FB607FCFACFE889F98980811C
:1004F00085FFF5CFCE010E941E02F1CFEB8DEC0FF0
:10050000FD2FF11DE35AFF4FF0829FB7F8940B8F38
:10051000EA89FB8980818062CFCFCF93DF93EC01A2
:10052000888D8823B9F0AA89BB89E889F9898C91DB
:1005300085FD03C0808186FD0DC00FB607FCF7CF97
:100540008C9185FFF2CF808185FFEDCFCE010E9497
:100550001E02E9CFDF91CF91089580E090E0892BD2
:1005600029F00E94140281110E94000080E090E0B6
:10057000892B49F080E090E0892B29F00E9400004F
:1005800081110E94000080E090E0892B49F080E01A
:1005900090E0892B29F00E94000081110E94000048
:1005A00080E090E0892B49F080E090E0892B29F0F1
:1005B0000E94000081110C9400000895CF93DF93F6
:1005C00090E0FC01E05AFD4F2491865E9D4FFC01B6
:1005D00084918823D1F090E0880F991FFC01EA51A3
:1005E000FE4FA591B491FC01E050FE4FC591D4910E
:1005F00061110EC09FB7F8948C91E22FE0958E2385
:100600008C932881E223E8839FBFDF91CF910895E7
:100610008FB7F894EC91E22BEC938FBFF6CFFC01EF
:1006200001900020E9F73197AF01481B590BBC013D
:100630008BED92E00C94AA018F929F92AF92BF92A1
:100640000F931F93CF93DF93CDB7DEB7A1970FB66C
:10065000F894DEBF0FBECDBF19A2423008F44AE0C5
:100660008E010F5D1F4F842E912CB12CA12CA50162
:1006700094010E94700AE62FB901CA01EA30F4F42D
:10068000E05DD801EE938D01232B242B252B79F7E8
:1006900090E080E0109719F0CD010E940F03A19621
:1006A0000FB6F894DEBF0FBECDBFDF91CF911F9183
:1006B0000F91BF90AF909F908F900895E95CE1CF2C
:1006C000CF93DF930E940F03EC0182E192E00E943E
:1006D0000F038C0F9D1FDF91CF9108952F923F92B2
:1006E0004F925F926F927F928F929F92AF92BF9242
:1006F000CF92DF92EF92FF920F931F93CF93DF93EE
:1007000000D000D000D0CDB7DEB78A013E832D8364
:100710002BE297FD2DE22B013C01E89477F8F801DC
:1007200021931F01C301B2010E9438090E94FD09F3
:100730000E9474086B019B012F5F3F4F3C832B830A
:10074000CB010296F801E80FF91FFA83E9831986B5
:100750001886812C912C20E8A22E2FE3B22E28851A
:1007600039858B819C81281739073CF5A5019401B7
:10077000C301B2010E9402080E9474082AE030E01E
:1007800040E050E00E94920A6F8320E030E040E2B7
:1007900051E4C501B4010E9490094B015C018F81B5
:1007A000805DE981FA818293FA83E983288539851E
:1007B0002F5F3F4F39872887D2CF8EE2EB81FC81B4
:1007C000E20DF31D8083C6010396800F911F9A836B
:1007D000898301E010E0C12CD12C80E8E82E8FE362
:1007E000F82E9AE0892E912CA12CB12C20E030E03B
:1007F00040E251E4C701B6010E9490096B017C01FF
:10080000AC019B01C301B2010E9490090E947408CF
:10081000A50194010E94920A605DE981FA816193C9
:10082000FA83E9830F5F1F4F2D813E812017310727
:10083000ECF6EB81FC81E20FF31FE20DF31D86E67F
:100840008183128229960FB6F894DEBF0FBECDBF0A
:10085000DF91CF911F910F91FF90EF90DF90CF909C
:10086000BF90AF909F908F907F906F905F904F90D0
:100870003F902F9008951F920F920FB60F92112460
:100880002F933F938F939F93AF93BF938091D70202
:100890009091D802A091D902B091DA023091D6029B
:1008A00023E0230F2D3758F50196A11DB11D20938C
:1008B000D6028093D7029093D802A093D902B09326
:1008C000DA028091D2029091D302A091D402B09129
:1008D000D5020196A11DB11D8093D2029093D3023F
:1008E000A093D402B093D502BF91AF919F918F9105
:1008F0003F912F910F900FBE0F901F90189526E8F3
:10090000230F0296A11DB11DD2CF1F920F920FB6D9
:100910000F9211240BB60F922F933F934F935F9337
:100920006F937F938F939F93AF93BF93EF93FF93B7
:100930008BED92E00E941E02FF91EF91BF91AF916B
:100940009F918F917F916F915F914F913F912F91E7
:100950000F900BBE0F900FBE0F901F9018951F9217
:100960000F920FB60F9211240BB60F922F938F9305
:100970009F93EF93FF93E091EB02F091EC02808163
:10098000E091F102F091F20282FD1DC09081809110
:10099000F4028F5F8F732091F502821741F0E0918E
:1009A000F402F0E0E552FD4F958F8093F402FF9141
:1009B000EF919F918F912F910F900BBE0F900FBED3
:1009C0000F901F9018958081F2CFCF93DF93CDB712
:1009D000DEB7C055D1090FB6F894DEBF0FBECDBF4C
:1009E000789484B5826084BD84B5816084BD85B50A
:1009F000826085BD85B5816085BD80916E00816016
:100A000080936E00109281008091810082608093BB
:100A100081008091810081608093810080918000BD
:100A20008160809380008091B10084608093B100E8
:100A30008091B00081608093B000809191008260CD
:100A400080939100809191008160809391008091CA
:100A500090008160809390008091A10082608093DB
:100A6000A1008091A10081608093A1008091A000ED
:100A700081608093A0008091210182608093210198
:100A8000809121018160809321018091200181600A
:100A90008093200180917A00846080937A00809115
:100AA0007A00826080937A0080917A0081608093DE
:100AB0007A0080917A00806880937A001092C10059
:100AC00060E083E00E94DE0261E08DE00E94DE02D1
:100AD00061E08DE00E94DE0223EB32E0F9018491B7
:100AE000EFEFE80FE23108F06BC1F0E08827E4583F
:100AF000FA4F8F4F0C94B10A8E053306390645061E
:100B00005106E0065D0666066F067B0687069306BD
:100B1000A406B006E006BC06C806D40684B5806804
:100B200084BD80E887BDE091EB02F091EC0282E0A9
:100B30008083E091E702F091E8021082E091E902FF
:100B4000F091EA028FEC80831092F302E091EF02C1
:100B5000F091F00286E08083E091ED02F091EE02E8
:100B6000808180618083E091ED02F091EE028081CE
:100B700088608083E091ED02F091EE0280818068D0
:100B80008083E091ED02F091EE0280818F7D808381
:100B900085E192E00E94600384E292E00E940F03EC
:100BA0001A821982FE0133968EE4DF011D928A9526
:100BB000E9F723E030E0AE014F5F5F4F6BED7FE080
:100BC00089E490E40E946E03CE0101960E940F0317
:100BD00085E592E00E94600381E492E00E940F03A9
:100BE00025E030E042E852E06BED7FE089E490E4FC
:100BF0000E946E0382E892E00E94600387E592E023
:100C00000E940F034AE063E070E080E090E00E9401
:100C10001C036EE28BED92E00E94400216E060E061
:100C20007FEF80E19EE3115009F44BC120E030E0FA
:100C300040E251E40E9490094B015C010E947B0854
:100C40006B01F12CE12C4AE0C701B6010E941C03A4
:100C5000C701B6010E94AA089B01AC01C501B401FD
:100C60000E949507E0CF84B5806284BD80E888BD8E
:100C70005ACF8091800080688093800080E890E067
:100C800090938900809388004ECF8091800080628D
:100C90008093800080E890E090938B0080938A009E
:100CA00042CF8091800088608093800080E890E04F
:100CB00090938D0080938C0036CF8091B000806837
:100CC0008093B00080E88093B3002DCF8091B00076
:100CD00080628093B00080E88093B40024CF80913C
:100CE000900080688093900080E890E09093990055
:100CF0008093980018CF809190008062809390003C
:100D000080E890E090939B0080939A000CCF8091B4
:100D1000900088608093900080E890E090939D0020
:100D200080939C0000CF8091A00080688093A000F9
:100D30008091A0008F7B8093A00080E890E090934A
:100D4000A9008093A800EFCE8091A00080628093DC
:100D5000A00080E890E09093AB008093AA00E3CEDF
:100D60008091A00088608093A00080E890E090933C
:100D7000AD008093AC00D7CE809120018068809335
:100D8000200180E890E09093290180932801CBCE48
:100D90008091200180628093200180E890E0909310
:100DA0002B0180932A01BFCE80912001886080931F
:100DB000200180E890E090932D0180932C01B3CE28
:100DC000F9012491EDE6F2E03491E7E2F2E094914A
:100DD000992309F4A8CE222311F121502231F8F4ED
:100DE000E22FF0E08827E850F94F8F4F0C94B10ABA
:100DF00026072A070A071E0722070F072D073307B2
:100E000037073D07410745074B074F070F075307B4
:100E100059075D07809180008F7780938000E92FCC
:100E2000F0E0EE0FFF1FE050FE4FA591B4918FB799
:100E3000F894EC913E2B3C938FBF75CE809180004F
:100E40008F7DEBCF80918000877FE7CF84B58F7750
:100E500084BDE5CF84B58F7DFBCF8091B0008F77C7
:100E60008093B000DCCF8091B0008F7DF9CF80916E
:100E700090008F7780939000D2CF809190008F7DEB
:100E8000F9CF80919000877FF5CF8091A0008F7778
:100E90008093A000C4CF8091A0008F7DF9CF809176
:100EA000A000877FF5CF809120018F77809320016C
:100EB000B6CF809120018F7DF9CF80912001877F6F
:100EC000F5CF82E192E00E940F030E94AD02FDCFB8
:100ED000EBEDF2E01382128288EE93E0A0E0B0E046
:100EE00084839583A683B78384E092E09183808393
:100EF00085EC90E09587848784EC90E097878687DF
:100F000080EC90E0918B808B81EC90E0938B828BD6
:100F100082EC90E0958B848B86EC90E0978B868BAF
:100F2000118E128E138E148E08955058BB27AA2747
:100F30000E94AD070C94FE080E94F00838F00E9451
:100F4000F70820F039F49F3F19F426F40C94ED08CB
:100F50000EF4E095E7FB0C94E708E92F0E940F09D7
:100F600058F3BA17620773078407950720F079F4DE
:100F7000A6F50C9431090EF4E0950B2EBA2FA02D96
:100F80000B01B90190010C01CA01A0011124FF2736
:100F9000591B99F0593F50F4503E68F11A16F04031
:100FA000A22F232F342F4427585FF3CF4695379530
:100FB0002795A795F0405395C9F77EF41F16BA0BF5
:100FC000620B730B840BBAF09150A1F0FF0FBB1FA3
:100FD000661F771F881FC2F70EC0BA0F621F731FEC
:100FE000841F48F4879577956795B795F7959E3F49
:100FF00008F0B0CF9395880F08F09927EE0F9795DA
:10100000879508950E9416080C94FE080E94F70820
:1010100058F00E94F00840F029F45F3F29F00C944A
:10102000E70851110C9432090C94ED080E940F0945
:1010300068F39923B1F3552391F3951B550BBB2707
:10104000AA2762177307840738F09F5F5F4F220F4C
:10105000331F441FAA1FA9F335D00E2E3AF0E0E843
:1010600032D091505040E695001CCAF72BD0FE2F8D
:1010700029D0660F771F881FBB1F26173707480721
:10108000AB07B0E809F0BB0B802DBF01FF279358D9
:101090005F4F3AF09E3F510578F00C94E7080C94AE
:1010A00032095F3FE4F3983ED4F3869577956795D0
:1010B000B795F7959F5FC9F7880F911D969587950E
:1010C00097F90895E1E0660F771F881FBB1F62172D
:1010D00073078407BA0720F0621B730B840BBA0BEB
:1010E000EE1F88F7E09508950E947B086894B1117F
:1010F0000C94320908950E94170988F09F5798F0C0
:10110000B92F9927B751B0F0E1F0660F771F881F0C
:10111000991F1AF0BA95C9F714C0B13091F00E9426
:101120003109B1E008950C943109672F782F882791
:10113000B85F39F0B93FCCF3869577956795B3954D
:10114000D9F73EF490958095709561957F4F8F4FBC
:101150009F4F0895E89409C097FB3EF490958095C1
:10116000709561957F4F8F4F9F4F9923A9F0F92F6D
:1011700096E9BB279395F695879577956795B795EB
:10118000F111F8CFFAF4BB0F11F460FF1BC06F5FD1
:101190007F4F8F4F9F4F16C0882311F096E911C0E3
:1011A000772321F09EE8872F762F05C0662371F004
:1011B00096E8862F70E060E02AF09A95660F771F18
:1011C000881FDAF7880F9695879597F9089597F90C
:1011D0009F6780E870E060E008959FEF80EC0895DD
:1011E00000240A9416161706180609060895002406
:1011F0000A9412161306140605060895092E039480
:10120000000C11F4882352F0BB0F40F4BF2B11F4F3
:1012100060FF04C06F5F7F4F8F4F9F4F089557FD52
:101220009058440F551F59F05F3F71F04795880F54
:1012300097FB991F61F09F3F79F0879508951216EB
:1012400013061406551FF2CF4695F1DF08C0161697
:1012500017061806991FF1CF869571056105089448
:101260000895E894BB2766277727CB0197F908955F
:101270000E94480929ED3BE54EED5EE30C94900990
:1012800016F00C94230A0C94ED0868940C94E7086B
:101290000E941709A8F39923C1F3AEF3DF93CF930C
:1012A0001F930F93FF92C92FDD2788232AF02197E0
:1012B000660F771F881FDAF720E030E040E85FEB29
:1012C0009FE3883920F0803E38F021968F770E9486
:1012D0009607E4EEF0E004C00E949607E1E1F1E039
:1012E0000E94310A8B01BE01EC01FB2E6F57710980
:1012F0007595771F880B990B0E94AC0828E132E79F
:1013000041E35FE30E94A309AF2D9801AE01FF9076
:101310000F911F91CF91DF910E94AD070C94FE08B1
:101320000E94A3090C94FE080E94F00838F00E9465
:10133000F70820F0952311F00C94E7080C94ED08C1
:1013400011240C9432090E940F0970F3959FC1F388
:10135000950F50E0551F629FF001729FBB27F00D63
:10136000B11D639FAA27F00DB11DAA1F649F6627B8
:10137000B00DA11D661F829F2227B00DA11D621F07
:10138000739FB00DA11D621F839FA00D611D221FC1
:10139000749F3327A00D611D231F849F600D211DA5
:1013A000822F762F6A2F11249F5750409AF0F1F028
:1013B00088234AF0EE0FFF1FBB1F661F771F881F91
:1013C00091505040A9F79E3F510580F00C94E708DA
:1013D0000C9432095F3FE4F3983ED4F386957795F9
:1013E0006795B795F795E7959F5FC1F7FE2B880F37
:1013F000911D9695879597F908950E94580A30F0A7
:101400009F3710F40C9432090C94080A0C94230AA8
:10141000882371F4772321F09850872B762F07C00B
:10142000662311F499270DC09051862B70E060E07F
:101430002AF09A95660F771F881FDAF7880F96951E
:10144000879597F908959F3F31F0915020F4879543
:1014500077956795B795880F911D9695879597F91C
:101460000895DF93CF931F930F93FF92EF92DF9234
:101470007B018C01689406C0DA2EEF010E94A3095B
:10148000FE01E894A5912591359145915591A6F3DA
:10149000EF010E94AD07FE019701A801DA9469F7F8
:1014A000DF90EF90FF900F911F91CF91DF91089502
:1014B0000E941709A0F0BEE7B91788F4BB279F3830
:1014C00060F41616B11D672F782F8827985FF7CF25
:1014D000869577956795B11D93959639C8F30895CC
:1014E000A1E21A2EAA1BBB1BFD010DC0AA1FBB1F28
:1014F000EE1FFF1FA217B307E407F50720F0A21B9A
:10150000B30BE40BF50B661F771F881F991F1A9406
:1015100069F760957095809590959B01AC01BD0130
:10152000CF010895052E97FB1EF400940E94A90A8E
:1015300057FD07D00E94700A07FC03D04EF40C94AC
:10154000A90A50954095309521953F4F4F4F5F4FD9
:10155000089590958095709561957F4F8F4F9F4F1F
:101560000895EE0FFF1F881F8BBF0790F691E02DA7
:061570001994F894FFCF6E
:10157600000000004002AA01D7018D020802E60120
:10158600FA010D0A0054657374207072696E742036
:1015960050690A007072696E74205069207573690B
:1015A6006E67207072696E745F666C6F61743A2044
:1015B600007072696E74205069207573696E6720B9
:1015C60066746F613A20000A63726F7373206368F2
:1015D60065636B3A2053657269616C2E7072696E31
:1015E600746C6E2870695F6368202C2035293A096F
:0215F6000000F3
:00000001FF
