:100000000C9426010C943A010C943A010C943A0198
:100010000C943A010C943A010C943A010C943A0174
:100020000C943A010C943A010C943A010C943A0164
:100030000C943A010C943A010C943A010C943A0154
:100040000C943A010C943A010C943A010C943A0144
:100050000C943A010C943A010C943A010C94F60178
:100060000C943A010C943A010C943A010C943A0124
:100070000C943A010C943A010C943A010C943A0114
:100080000C943A010C943A010C943A010C944002FD
:100090000C943A010C943A010C943A010C943A01F4
:1000A0000C943A010C943A010C943A010C943A01E4
:1000B0000C943A010C943A010C943A010C943A01D4
:1000C0000C943A010C943A010C943A010C943A01C4
:1000D0000C943A010C943A010C943A010C943A01B4
:1000E0000C943A010C9483010C946C010C949F01C4
:1000F0000C9460010C9468010C94D1010C9464017F
:100100000C948D010C946F010C949A010C94950140
:100110000C947F010C9491010C9487010C9475014F
:100120000C945A010C9479010C949B01000020005E
:100130002300260029002C002F00320000010000BF
:1001400003010601090100000A0B02090C0D0E084B
:100150000703040100000000000000000000000090
:10016000000000000000000000000000000000008F
:10017000000012111000000000000000000000004C
:10018000000000000000000000000000000022004D
:10019000250028002B002E00310034000201000051
:1001A000050108010B0100002100240027002A009E
:1001B0002D003000330001010000040107010A0195
:1001C00005050505070508080808020202020A0AD3
:1001D00008080404040401010101010101010303F1
:1001E000030303030303040707070C0C0C0C0C0C9C
:1001F0000C0C0202020206060606060606060B0B99
:100200000B0B0B0B0B0B01021020200808102040D9
:1002100010204080020102010804020101020408CA
:100220001020408080402010080402018004020158
:1002300080402010080402010804020101020408A1
:1002400010204080010204081020408011241FBEAD
:10025000CFEFD1E2DEBFCDBF00E00CBF22E0A0E0D7
:10026000B2E001C01D92AF30B207E1F70E946B020D
:100270000C9465030C9400008150823108F05AC040
:10028000E82FF0E08827E85BFE4F8F4F0C945D036A
:1002900068016C015A01600164019A016F017501E6
:1002A00079017F01830187018D0191019A019501F7
:1002B0009B019F01809180008F778093800008953B
:1002C000809180008F7DF9CF80918000877FF5CF6E
:1002D00084B58F7784BD089584B58F7DFBCF8091E1
:1002E000B0008F778093B00008958091B0008F7D2B
:1002F000F9CF809190008F7780939000089580913E
:1003000090008F7DF9CF80919000877FF5CF80910D
:10031000A0008F778093A00008958091A0008F7D2A
:10032000F9CF8091A000877FF5CF809120018F7752
:10033000809320010895809120018F7DF9CF8091D5
:100340002001877FF5CF1F93CF93DF93282F30E0D5
:10035000F901EA5BFE4F8491F901EA5FFD4FD49108
:10036000F901E054FE4FC491CC23A9F0162F81115E
:100370000E943C01EC2FF0E0EE0FFF1FE457FE4F10
:10038000A591B4918FB7F894EC91111108C0D09554
:10039000DE23DC938FBFDF91CF911F910895DE2B79
:1003A000F8CFCF93DF93E9E4F1E08491E9E0F2E064
:1003B000D491E3ECF1E0C491C11109C08091050230
:1003C00091E0892780930502DF91CF9108958111F3
:1003D0000E943C01EC2FF0E0EE0FFF1FE45DFE4FAA
:1003E000A591B491EC91ED2349F3EECF1F920F92BA
:1003F0000FB60F9211242F933F938F939F93AF9338
:10040000BF9380910B0290910C02A0910D02B091CC
:100410000E0230910A0223E0230F2D3758F5019682
:10042000A11DB11D20930A0280930B0290930C0230
:10043000A0930D02B0930E028091060290910702E4
:10044000A0910802B09109020196A11DB11D8093EF
:10045000060290930702A0930802B0930902BF918D
:10046000AF919F918F913F912F910F900FBE0F9061
:100470001F90189526E8230F0296A11DB11DD2CF1B
:100480001F920F920FB60F9211240BB60F922F935B
:100490003F934F935F936F937F938F939F93AF930C
:1004A000BF93EF93FF93E0910302F091040219953B
:1004B000FF91EF91BF91AF919F918F917F916F913C
:1004C0005F914F913F912F910F900BBE0F900FBEF8
:1004D0000F901F901895789484B5826084BD84B580
:1004E000816084BD85B5826085BD85B5816085BD2F
:1004F00080916E00816080936E00109281008091E7
:10050000810082608093810080918100816080936E
:100510008100809180008160809380008091B10093
:1005200084608093B1008091B00081608093B000BE
:100530008091910082608093910080919100816010
:1005400080939100809190008160809390008091D1
:10055000A10082608093A1008091A10081608093BE
:10056000A1008091A00081608093A0008091210172
:10057000826080932101809121018160809321011B
:100580008091200181608093200180917A008460B5
:1005900080937A0080917A00826080937A008091C3
:1005A0007A00816080937A0080917A0080688093DD
:1005B0007A001092C100E3E1F2E02491EDECF1E069
:1005C0008491882399F090E0880F991FFC01EA55E7
:1005D000FE4FA591B491FC01E457FE4F8591949193
:1005E0008FB7F894EC91E22BEC938FBFE9E0F2E047
:1005F0002491E3ECF1E084918823C1F090E0880F2E
:10060000991FFC01EA55FE4FC591D491FC01E457B6
:10061000FE4FA591B4919FB7F8943881822F8095B1
:1006200083238883EC91E22BEC939FBF60910502BA
:100630008DE00E94A3011092900080E180939100D0
:1006400091E09093020220E43FE130930102209375
:100650000002309397002093960080919100887F4C
:10066000809391008091910081608093910021EDB1
:1006700031E0309304022093030290937100789448
:100680009091910020910202922B90939100909171
:100690009100987F9093910080919100822B80939C
:1006A0009100C0E0D0E0609105028DE00E94A301BE
:1006B0002097C9F30E940000F6CFEE0FFF1F881F9E
:0E06C0008BBF0790F691E02D1994F894FFCFB0
:00000001FF
