:100000000C941B010C9449030C941E030C94F302F2
:100010000C94C8020C949D020C9472020C9447023A
:100020000C941C020C943C010C943C010C943C017B
:100030000C943C010C943C010C943C010C943C014C
:100040000C943C010C943C010C943C010C943C013C
:100050000C943C010C943C010C943C010C94D20196
:100060000C943C010C943C010C943C010C943C011C
:100070000C943C010C943C010C943C010C943C010C
:100080000C943C010C943C010C943C010C943C01FC
:100090000C943C010C943C010C943C010C943C01EC
:1000A0000C943C010C943C010C943C010C943C01DC
:1000B0000C943C010C943C010C943C010C943C01CC
:1000C0000C943C010C943C010C943C010C943C01BC
:1000D0000C943C010C943C010C943C010C943C01AC
:1000E0000C943C010C9494010C9498010C94B9016B
:1000F0000C94D1010C94BD010C948C010C947501ED
:100100000C9490010C94A5010C94AF010C94C101C6
:100110000C94AB010C943E010C94A1010C94CB0106
:100120000C949B010C94B3010C94C7010C947A01BC
:1001300000000A0B02090C0D0E0807030401000061
:1001400000000000000000000000000000000000AF
:10015000000000000000000000000000121110006C
:10016000000000000000000000000000000000008F
:1001700000000000000000002200250028002B00E5
:100180002E003100340002010000050108010B01BE
:1001900000002100240027002A002D003000330039
:1001A00001010000040107010A0105050505070515
:1001B00008080808020202020A0A080804040404E3
:1001C000010101010101010103030303030303030F
:1001D000040707070C0C0C0C0C0C0C0C020202029E
:1001E00006060606060606060B0B0B0B0B0B0B0B87
:1001F0000102102020080810204010204080020139
:10020000020108040201010204081020408080401D
:10021000201008040201800402018040201008041C
:1002200002010804020101020408102040800102BA
:1002300004081020408011241FBECFEFD1E2DEBFA2
:10024000CDBF00E00CBF12E0A0E0B2E0EEE8F8E0C5
:1002500000E00BBF02C007900D92A031B107D9F7A3
:1002600022E0A0E1B2E001C01D92AA31B207E1F79D
:100270000E9474030C9445040C94000080911002B9
:1002800091E08927809310020895282F30E0F9012A
:10029000E05DFE4F9491F901E051FE4F44912655E7
:1002A0003E4FF9012491222309F435C0992311F11D
:1002B00091509231F8F4E92FF0E08827ED59FE4F84
:1002C0008F4F0C943D049401980175018C019001AD
:1002D0007A019B01A101A501AB01AF01B301B901F5
:1002E000BD017A01C101C701CB01809180008F77E8
:1002F00080938000E22FF0E0EE0FFF1FEA58FE4FE0
:10030000A591B4918FB7F894EC91611148C04095D4
:100310004E234C938FBF0895809180008F7DE8CF4E
:1003200080918000877FE4CF84B58F7784BDE2CF52
:1003300084B58F7DFBCF8091B0008F778093B00024
:10034000D9CF8091B0008F7DF9CF809190008F77C9
:1003500080939000CFCF809190008F7DF9CF8091D6
:100360009000877FF5CF8091A0008F778093A000C9
:10037000C1CF8091A0008F7DF9CF8091A000877FB1
:10038000F5CF809120018F7780932001B3CF8091AA
:1003900020018F7DF9CF80912001877FF5CF4E2BF3
:1003A000B8CF08951F920F920FB60F9211242F937A
:1003B0003F938F939F93AF93BF9380911602909139
:1003C0001702A0911802B09119023091150223E092
:1003D000230F2D3758F50196A11DB11D209315024D
:1003E0008093160290931702A0931802B0931902FB
:1003F0008091110290911202A0911302B091140207
:100400000196A11DB11D8093110290931202A09339
:100410001302B0931402BF91AF919F918F913F91BE
:100420002F910F900FBE0F901F90189526E8230F65
:100430000296A11DB11DD2CF1F920F920FB60F923F
:1004400011240BB60F922F933F934F935F936F93AB
:100450007F938F939F93AF93BF93EF93FF93E0911D
:100460000E02F0910F021995FF91EF91BF91AF919C
:100470009F918F917F916F915F914F913F912F91BC
:100480000F900BBE0F900FBE0F901F9018951F92EC
:100490000F920FB60F9211240BB60F922F933F932A
:1004A0004F935F936F937F938F939F93AF93BF937C
:1004B000EF93FF93E0910C02F0910D021995FF91DB
:1004C000EF91BF91AF919F918F917F916F915F91CC
:1004D0004F913F912F910F900BBE0F900FBE0F9039
:1004E0001F9018951F920F920FB60F9211240BB602
:1004F0000F922F933F934F935F936F937F938F93BD
:100500009F93AF93BF93EF93FF93E0910202F0911B
:1005100003021995FF91EF91BF91AF919F918F9138
:100520007F916F915F914F913F912F910F900BBEF3
:100530000F900FBE0F901F9018951F920F920FB63D
:100540000F9211240BB60F922F933F934F935F930B
:100550006F937F938F939F93AF93BF93EF93FF938B
:10056000E0910002F09101021995FF91EF91BF9186
:10057000AF919F918F917F916F915F914F913F913B
:100580002F910F900BBE0F900FBE0F901F901895DC
:100590001F920F920FB60F9211240BB60F922F934A
:1005A0003F934F935F936F937F938F939F93AF93FB
:1005B000BF93EF93FF93E0910A02F0910B0219951C
:1005C000FF91EF91BF91AF919F918F917F916F912B
:1005D0005F914F913F912F910F900BBE0F900FBEE7
:1005E0000F901F9018951F920F920FB60F92112423
:1005F0000BB60F922F933F934F935F936F937F931D
:100600008F939F93AF93BF93EF93FF93E091080273
:10061000F09109021995FF91EF91BF91AF919F91D0
:100620008F917F916F915F914F913F912F910F909B
:100630000BBE0F900FBE0F901F9018951F920F9238
:100640000FB60F9211240BB60F922F933F934F9337
:100650005F936F937F938F939F93AF93BF93EF932A
:10066000FF93E0910602F09107021995FF91EF9137
:10067000BF91AF919F918F917F916F915F914F91BA
:100680003F912F910F900BBE0F900FBE0F901F90B8
:1006900018951F920F920FB60F9211240BB60F925E
:1006A0002F933F934F935F936F937F938F939F937A
:1006B000AF93BF93EF93FF93E0910402F091050293
:1006C0001995FF91EF91BF91AF919F918F917F917C
:1006D0006F915F914F913F912F910F900BBE0F90B3
:1006E0000FBE0F901F901895789484B5826084BDDA
:1006F00084B5816084BD85B5826085BD85B5816026
:1007000085BD80916E00816080936E0010928100A3
:10071000809181008260809381008091810081605E
:10072000809381008091800081608093800080911F
:10073000B10084608093B1008091B00081608093AB
:10074000B00080919100826080939100809191002F
:1007500081608093910080919000816080939000EF
:100760008091A10082608093A1008091A1008160AE
:100770008093A1008091A00081608093A00080916F
:100780002101826080932101809121018160809309
:1007900021018091200181608093200180917A0065
:1007A000846080937A0080917A00826080937A00DE
:1007B00080917A00816080937A0080917A008068CD
:1007C00080937A001092C100EDEFF1E02491E7EB05
:1007D000F1E08491882399F090E0880F991FFC0143
:1007E000E057FE4FA591B491FC01EA58FE4F859168
:1007F00094918FB7F894EC91E22BEC938FBFE3EFD9
:10080000F1E02491EDEAF1E084918823C1F090E0D9
:10081000880F991FFC01E057FE4FC591D491FC0150
:10082000EA58FE4FA591B4919FB7F8943881822F72
:10083000809583238883EC91E22BEC939FBF60919A
:1008400010028DE00E9445018EE391E09093030237
:100850008093020280916A00837F886080936A009F
:10086000ED9AC0E0D0E0609110028DE00E94450159
:100870002097C9F30E940000F6CFEE0FFF1F881FDC
:0E0880008BBF0790F691E02D1994F894FFCFEE
:10088E00D101D101D101D101D101D101D101D101CA
:00000001FF
