:100000000C944A010C947B010C947B010C947B01B1
:100010000C947B010C947B010C947B010C947B0170
:100020000C947B010C947B010C947B010C947B0160
:100030000C947B010C947B010C947B010C947B0150
:100040000C947B010C947B010C947B010C947B0140
:100050000C947B010C947B010C947B010C94CC06DA
:100060000C947B010C9440070C9416070C947B01B4
:100070000C947B010C947B010C947B010C947B0110
:100080000C947B010C947B010C947B010C947B0100
:100090000C947B010C947B010C947B010C947B01F0
:1000A0000C947B010C947B010C947B010C947B01E0
:1000B0000C947B010C947B010C947B010C947B01D0
:1000C0000C947B010C947B010C947B010C947B01C0
:1000D0000C947B010C947B010C947B010C947B01B0
:1000E0000C947B010C94E3030C94FD030C94C50366
:1000F0000C94F3030C9411020C94A9080C942004A2
:100100000C94CA010C947F020C940D020C945204BE
:100110000C94FF010C94C5010C942A040C94070460
:100120000C9471020C94E8010C94D9030C94B7025E
:100130000C9417020C94E0010C945D020C942102C3
:100140000C94C0030C941B020C9404030C94F10156
:100150000C94CF030C9448040C94F5010C94EB011F
:100160000C94DC010C9409020C944E020C94E401F2
:100170000C94FB010C9434040C943E040C94EB039B
:100180000C94B9030C9403020C9411040000210098
:10019000240027002A002D00300033000101000058
:1001A000040107010A0100002200250028002B009D
:1001B0002E003100340002010000050108010B018E
:1001C00005050505070508080808020202020A0AD3
:1001D00008080404040401010101010101010303F1
:1001E000030303030303040707070C0C0C0C0C0C9C
:1001F0000C0C0202020206060606060606060B0B99
:100200000B0B0B0B0B0B01021020200808102040D9
:1002100010204080020102010804020101020408CA
:100220001020408080402010080402018004020158
:1002300080402010080402010804020101020408A1
:1002400010204080010204081020408000000A0BAA
:1002500002090C0D0E080703040100000000000055
:10026000000000000000000000000000000000008E
:10027000000000000000000012111000000000004B
:10028000000000000000000000000000000000006E
:100290000000A90811241FBECFEFD1E2DEBFCDBF01
:1002A00000E00CBF13E0A0E0B2E0EEE4F7E100E014
:1002B0000BBF02C007900D92A03BB107D9F724E015
:1002C000A0EBB3E001C01D92A93AB207E1F711E03B
:1002D000CAE4D1E000E006C021970109802FFE01A9
:1002E0000E945A0BC934D10780E00807A9F70E9481
:1002F00076070C94A50B0C94000080917B0088601D
:1003000080937B008091040220E4829FC00111242D
:10031000816080937C0080917A00806480937A0071
:1003200080917A0086FDFCCF8091780090917900D1
:100330000895382FE9E5F2E08491E3E1F2E02491B9
:10034000EDECF1E09491992309F435C0882311F183
:1003500081508231F8F4E82FF0E08827ED54FE4F09
:100360008F4F0C945A0BE401E801C501DC01E00158
:10037000CA01EB01F101F501FB01FF0103020902D2
:100380000D02CA01110217021B02809180008F77B3
:1003900080938000E92FF0E0EE0FFF1FEA55FE4F3B
:1003A000A591B4918FB7F894EC91311148C0209584
:1003B0002E232C938FBF0895809180008F7DE8CFEE
:1003C00080918000877FE4CF84B58F7784BDE2CFB2
:1003D00084B58F7DFBCF8091B0008F778093B00084
:1003E000D9CF8091B0008F7DF9CF809190008F7729
:1003F00080939000CFCF809190008F7DF9CF809136
:100400009000877FF5CF8091A0008F778093A00028
:10041000C1CF8091A0008F7DF9CF8091A000877F10
:10042000F5CF809120018F7780932001B3CF809109
:1004300020018F7DF9CF80912001877FF5CF2E2B72
:10044000B8CFAF92BF92CF92DF92EF92FF920F930D
:100450001F93CF93DF936C017B018B01040F151F5A
:10046000EB015E01AE18BF08C017D10759F06991C2
:10047000D601ED91FC910190F081E02DC601199516
:10048000892B79F7C501DF91CF911F910F91FF90D3
:10049000EF90DF90CF90BF90AF900895FC01538D07
:1004A000448D252F30E0842F90E0821B930B54174E
:1004B00010F0CF96089501970895FC01918D828DDB
:1004C000981761F0A28DAE0FBF2FB11D5D968C9174
:1004D000928D9F5F9F73928F90E008958FEF9FEFB3
:1004E0000895FC01918D828D981731F0828DE80F6F
:1004F000F11D858D90E008958FEF9FEF0895FC0129
:10050000918D228D892F90E0805C9F4F821B9109F5
:100510008F73992708958CE094E00E947F0221E078
:10052000892B09F420E0822F0895FC01A48DA80FE7
:10053000B92FB11DA35ABF4F2C91848D90E0019625
:100540008F739927848FA689B7892C93A089B18945
:100550008C91837080648C93938D848D981306C0E6
:100560000288F389E02D80818F7D80830895EF924A
:10057000FF920F931F93CF93DF93EC0181E0888F5D
:100580009B8D8C8D98131AC0E889F989808185FF2D
:1005900015C09FB7F894EE89FF896083E889F989CF
:1005A00080818370806480839FBF81E090E0DF91D1
:1005B000CF911F910F91FF90EF900895F62E0B8D24
:1005C00010E00F5F1F4F0F731127E02E8C8D8E11DF
:1005D0000CC00FB607FCFACFE889F989808185FF46
:1005E000F5CFCE010E949502F1CFEB8DEC0FFD2FE0
:1005F000F11DE35AFF4FF0829FB7F8940B8FEA8901
:10060000FB8980818062CFCFCF93DF93EC01888D0F
:100610008823B9F0AA89BB89E889F9898C9185FD7D
:1006200003C0808186FD0DC00FB607FCF7CF8C910B
:1006300085FFF2CF808185FFEDCFCE010E9495022C
:10064000E9CFDF91CF91089580E090E0892B29F0E8
:100650000E948B0281110E94000080E090E0892BB3
:1006600049F080E090E0892B29F00E940000811180
:100670000E94000080E090E0892B49F080E090E04B
:10068000892B29F00E94000081110E94000080E067
:1006900090E0892B49F080E090E0892B29F00E94BE
:1006A000000081110C9400000895CF93DF9390E037
:1006B000FC01EA5FFD4F249180549E4FFC01849120
:1006C0008823D1F090E0880F991FFC01E457FE4F7A
:1006D000A591B491FC01EA55FE4FC591D4916111E9
:1006E0000EC09FB7F8948C91E22FE0958E238C93E7
:1006F0002881E223E8839FBFDF91CF9108958FB7D0
:10070000F894EC91E22BEC938FBFF6CFCF93DF936D
:10071000EC0161E08DE00E945503209729F480E010
:10072000DF91CF910C949901CF3FD10511F481E075
:10073000F7CFE9E5F2E0E491E150E23108F0B2C030
:10074000F0E08827E955FC4F8F4F0C945A0BB90302
:10075000C003C503CF03D9035204E303EB03F30340
:10076000FD030704110420042A04520434043E0447
:10077000480484B5806884BDC7BDDF91CF910895DA
:1007800084B5806284BDC8BDF8CF80918000806848
:1007900080938000D0938900C0938800EECF809131
:1007A0008000806280938000D0938B00C0938A0089
:1007B000E4CF80918000886080938000D0938D008A
:1007C000C0938C00DACF8091B00080688093B00035
:1007D000C093B300D2CF8091B00080628093B0000C
:1007E000C093B400CACF809190008068809390003D
:1007F000D0939900C0939800C0CF80919000806200
:1008000080939000D0939B00C0939A00B6CF8091C4
:100810009000886080939000D0939D00C0939C00CE
:10082000ACCF8091A00080688093A0008091A00050
:100830008F7B8093A000D093A900C093A8009DCF88
:100840008091A00080628093A000D093AB00C09301
:10085000AA0093CF8091A00088608093A000D093DD
:10086000AD00C093AC0089CF809120018068809357
:100870002001D0932901C09328017FCF80912001CE
:10088000806280932001D0932B01C0932A0175CF01
:1008900080912001886080932001D0932D01C09326
:1008A0002C016BCFC038D1050CF041CF38CFFC0103
:1008B00001900020E9F73197AF01481B590BBC01AB
:1008C0008CE094E00C9421028F929F92AF92BF92A1
:1008D0000F931F93CF93DF93CDB7DEB7A1970FB6DA
:1008E000F894DEBF0FBECDBF19A2423008F44AE033
:1008F0008E010F5D1F4F842E912CB12CA12CA501D0
:1009000094010E94190BE62FB901CA01EA30F4F4F0
:10091000E05DD801EE938D01232B242B252B79F755
:1009200090E080E0109719F0CD010E945704A19645
:100930000FB6F894DEBF0FBECDBFDF91CF911F91F0
:100940000F91BF90AF909F908F900895E95CE1CF99
:10095000CF93DF93D0E0C0E0009719F00E945704D6
:10096000EC0187E192E00E9457048C0F9D1FDF91FC
:10097000CF9108954F925F926F927F928F929F9244
:10098000AF92BF92CF92DF92EF92FF926B017C0108
:10099000AC019B010E94140B882381F08AE192E054
:1009A000FF90EF90DF90CF90BF90AF909F908F908F
:1009B0007F906F905F904F900C94570446015701C1
:1009C000E894B7F82FEF3FEF4FE75FE7C501B401B9
:1009D0000E94140B81110DC02FEF3FEF4FE75FE72F
:1009E000C501B4010E94430918161CF48EE192E07F
:1009F000D7CF2FEF3FEF4FE75FE4C701B6010E946B
:100A0000A20A18161CF482E292E0CACF2FEF3FEF41
:100A10004FE75FECC701B6010E94430987FDF3CFA2
:100A200020E030E0A901C701B6010E944309B12CC2
:100A3000A12C87FF0AC06DE28CE094E00E94B7020F
:100A40005C01F7FAF094F7F8F0942AE037ED43EA06
:100A50005BE3C701B6010E94D7082B013C010E944D
:100A6000C1096B017C010E94F0099B01AC01C3012B
:100A7000B2010E94D6082B013C014AE0C701B60131
:100A80000E9464047C01EA0CFB1C6EE28CE094E0A2
:100A90000E94B702E80EF91E20E030E040E251E487
:100AA000C301B2010E94A70A2B013C010E94C109A7
:100AB0004B01B12CA12C4AE0C501B4010E94640491
:100AC000E80EF91EC501B4010E94F0099B01AC01BA
:100AD000C301B2010E94D60820E030E040E251E4B8
:100AE0000E94A70A0E94C10990E080E04AE00E94AB
:100AF00064048E0D9F1DFF90EF90DF90CF90BF900C
:100B0000AF909F908F907F906F905F904F900895DF
:100B10000F931F93CF93DF938C01FC01C081D18190
:100B200066E272E0CE010E947C0B8C0F9D1FF801E3
:100B300091838083DF91CF911F910F910895EF9260
:100B4000FF920F931F93CF93DF937C018B01FC01E6
:100B5000C081D181CE010E948B0BC817D907A1F4A7
:100B6000F80101900020E9F73197E01BF10BCE0F5F
:100B7000DF1FF701D183C08381E0DF91CF911F9107
:100B80000F91FF90EF90089580E0F7CFCF92DF9222
:100B9000EF92FF921F93CF93DF93EC016DE272E02F
:100BA000CE010E949F05882341F0CE010E94880556
:100BB00082E392E09983888316C06CE772E0CE01ED
:100BC0000E949F058823B9F0E881F981808196EF22
:100BD000980F943028F0882319F082E892E0EACF49
:100BE00081E08093B003DF91CF911F91FF90EF9050
:100BF000DF90CF9008956CEA72E0CE010E949F05CD
:100C0000882379F0E881F981808196EF980F9430FC
:100C100028F0882319F083EB92E0CCCF1092B00338
:100C2000E2CF6EED72E0CE010E949F05882309F4A9
:100C30004AC0CE010E948805E881F98180818053F5
:100C40008A30F0F5C12CD12C7601E881F981108130
:100C500080ED810F8A30C0F4AAE0B0E0A7019601D0
:100C60000E94620BC12E110FDD08EE08FF0820E381
:100C7000C21AD108E108F108C60ED71EE81EF91EF7
:100C80003196F983E883E1CFCE010E94880585E69D
:100C9000C816D104E104F10498F4C701B6010E941A
:100CA000F00920E030E048EC52E40E9448096093EB
:100CB000000270930102809302029093030293CF8B
:100CC00084EE92E077CF67E772E0CE010E949F0545
:100CD000882309F45CC0E881F981808196EF980F40
:100CE000943028F0882319F08EE393E063CF0E94BC
:100CF0007D016C0187E693E00E9457040D2C000CE7
:100D0000EE08FF084AE0C701B601F7FE0DC06DE22C
:100D10008CE094E00E94B70266277727CB016C191C
:100D20007D098E099F094AE00E94640481E793E0EF
:100D30000E945704C701B6010E94F20920E030EC7E
:100D40004FE754E40E9448096B017C0120E030E049
:100D500040EA50E40E94A70A0E94BA048AE793E09E
:100D60000E94570420E030E44CE955E4C701B60185
:100D70000E94A70A0E94BA0482E893E0DF91CF9113
:100D80001F91FF90EF90DF90CF900C9457048DE26D
:100D900092E09983888302CF1F920F920FB60F9231
:100DA00011242F933F938F939F93AF93BF93809181
:100DB000080490910904A0910A04B0910B043091A9
:100DC000070423E0230F2D3758F50196A11DB11D0F
:100DD000209307048093080490930904A0930A04C5
:100DE000B0930B048091030490910404A091050436
:100DF000B09106040196A11DB11D80930304909348
:100E00000404A0930504B0930604BF91AF919F9191
:100E10008F913F912F910F900FBE0F901F901895BB
:100E200026E8230F0296A11DB11DD2CF1F920F926B
:100E30000FB60F9211240BB60F922F933F934F933F
:100E40005F936F937F938F939F93AF93BF93EF9332
:100E5000FF938CE094E00E949502FF91EF91BF9187
:100E6000AF919F918F917F916F915F914F913F9142
:100E70002F910F900BBE0F900FBE0F901F901895E3
:100E80001F920F920FB60F9211240BB60F922F9351
:100E90008F939F93EF93FF93E0911C04F0911D04B7
:100EA0008081E0912204F091230482FD1DC0908195
:100EB000809125048F5F8F7320912604821741F063
:100EC000E0912504F0E0E45FFB4F958F80932504CB
:100ED000FF91EF919F918F912F910F900BBE0F90EB
:100EE0000FBE0F901F9018958081F2CFCF93DF93A4
:100EF0001F921F92CDB7DEB7789484B5826084BD0F
:100F000084B5816084BD85B5826085BD85B581600D
:100F100085BD80916E00816080936E00109281008B
:100F20008091810082608093810080918100816046
:100F30008093810080918000816080938000809107
:100F4000B10084608093B1008091B0008160809393
:100F5000B000809191008260809391008091910017
:100F600081608093910080919000816080939000D7
:100F70008091A10082608093A1008091A100816096
:100F80008093A1008091A00081608093A000809157
:100F900021018260809321018091210181608093F1
:100FA00021018091200181608093200180917A004D
:100FB000846080937A0080917A00826080937A00C6
:100FC00080917A00816080937A0080917A008068B5
:100FD00080937A001092C1001092040260E083E0D6
:100FE0000E94550361E08DE00E94550360E08FE3AD
:100FF0000E945503E0911C04F0911D0482E080835F
:10100000E0911804F09119041082E0911A04F09113
:101010001B048FEC808310922404E0912004F09153
:10102000210486E08083E0911E04F0911F048081FA
:1010300080618083E0911E04F0911F0480818860AC
:101040008083E0911E04F0911F048081806880837A
:10105000E0911E04F0911F0480818F7D80838CE8D5
:1010600093E00E94570481EBE82E83E0F82E94E091
:10107000892E912CA12CB12C8CE094E00E945D0271
:101080008C010F3F100731F180910104909102040F
:101090009C012F5F3F4F3093020420930104D02E18
:1010A0008F549C4FFC0100832035310541F4109290
:1010B00002041092010480E993E00E94A80486EFE4
:1010C000800F843018F1DD2009F1602F8CE094E06E
:1010D0000E94B7020E947D012091B003222379F182
:1010E00020E030E04FE753E460910002709101028C
:1010F00080910202909103020E94A70A0E94BA09FD
:10110000CB010E9486030E942403B6CF89E192E0BE
:101110000E94A804FA82E982CE0101960E94C605C7
:1011200089819A810E94A8041092020410920104FD
:101130001092B1038CE893E00E945704CBCFBC011E
:10114000990F880B990BA50194010E943B0BC901D3
:10115000D8CFECE0F4E01382128288EE93E0A0E0B6
:10116000B0E084839583A683B78389E092E091837E
:10117000808385EC90E09587848784EC90E0978766
:10118000868780EC90E0918B808B81EC90E0938B54
:10119000828B82EC90E0958B848B86EC90E0978B31
:1011A000868B118E128E138E148E08955058BB2785
:1011B000AA270E94EE080C94680A0E945A0A38F086
:1011C0000E94610A20F039F49F3F19F426F40C9430
:1011D000570A0EF4E095E7FB0C94510AE92F0E94A0
:1011E000790A58F3BA17620773078407950720F046
:1011F00079F4A6F50C949B0A0EF4E0950B2EBA2F09
:10120000A02D0B01B90190010C01CA01A00111240C
:10121000FF27591B99F0593F50F4503E68F11A16B8
:10122000F040A22F232F342F4427585FF3CF469549
:1012300037952795A795F0405395C9F77EF41F166B
:10124000BA0B620B730B840BBAF09150A1F0FF0F35
:10125000BB1F661F771F881FC2F70EC0BA0F621F21
:10126000731F841F48F4879577956795B795F79511
:101270009E3F08F0B0CF9395880F08F09927EE0FA6
:101280009795879508950E942D0A08F481E00895A6
:101290000E945C090C94680A0E94610A58F00E943E
:1012A0005A0A40F029F45F3F29F00C94510A511179
:1012B0000C949C0A0C94570A0E94790A68F39923AB
:1012C000B1F3552391F3951B550BBB27AA27621742
:1012D0007307840738F09F5F5F4F220F331F441F4F
:1012E000AA1FA9F335D00E2E3AF0E0E832D0915083
:1012F0005040E695001CCAF72BD0FE2F29D0660F70
:10130000771F881FBB1F261737074807AB07B0E8B2
:1013100009F0BB0B802DBF01FF2793585F4F3AF0B8
:101320009E3F510578F00C94510A0C949C0A5F3F43
:10133000E4F3983ED4F3869577956795B795F7953E
:101340009F5FC9F7880F911D9695879597F9089526
:10135000E1E0660F771F881FBB1F621773078407C2
:10136000BA0720F0621B730B840BBA0BEE1F88F7D1
:10137000E09508950E94C1096894B1110C949C0AEB
:1013800008950E94810A88F09F5798F0B92F9927F5
:10139000B751B0F0E1F0660F771F881F991F1AF060
:1013A000BA95C9F714C0B13091F00E949B0AB1E020
:1013B00008950C949B0A672F782F8827B85F39F01F
:1013C000B93FCCF3869577956795B395D9F73EF4F9
:1013D00090958095709561957F4F8F4F9F4F0895A1
:1013E000E89409C097FB3EF49095809570956195BF
:1013F0007F4F8F4F9F4F9923A9F0F92F96E9BB2775
:101400009395F695879577956795B795F111F8CFF0
:10141000FAF4BB0F11F460FF1BC06F5F7F4F8F4F5B
:101420009F4F16C0882311F096E911C0772321F051
:101430009EE8872F762F05C0662371F096E8862FE9
:1014400070E060E02AF09A95660F771F881FDAF740
:10145000880F9695879597F90895990F0008550F6D
:10146000AA0BE0E8FEEF16161706E807F907C0F02A
:1014700012161306E407F50798F0621B730B840B32
:10148000950B39F40A2661F0232B242B252B21F40C
:1014900008950A2609F4A140A6958FEF811D811DAC
:1014A000089597F99F6780E870E060E008959FEFE6
:1014B00080EC089500240A941616170618060906EB
:1014C000089500240A9412161306140605060895BA
:1014D000092E0394000C11F4882352F0BB0F40F442
:1014E000BF2B11F460FF04C06F5F7F4F8F4F9F4F82
:1014F000089557FD9058440F551F59F05F3F71F004
:101500004795880F97FB991F61F09F3F79F087956A
:101510000895121613061406551FF2CF4695F1DFF3
:1015200008C0161617061806991FF1CF8695710583
:10153000610508940895E894BB2766277727CB01B7
:1015400097F908950E942D0A08F48FEF08950E94DC
:10155000BA0A0C94680A0E945A0A38F00E94610A7A
:1015600020F0952311F00C94510A0C94570A112481
:101570000C949C0A0E94790A70F3959FC1F3950F11
:1015800050E0551F629FF001729FBB27F00DB11D07
:10159000639FAA27F00DB11DAA1F649F6627B00D97
:1015A000A11D661F829F2227B00DA11D621F739F80
:1015B000B00DA11D621F839FA00D611D221F749F8E
:1015C0003327A00D611D231F849F600D211D822FD5
:1015D000762F6A2F11249F5750409AF0F1F08823FC
:1015E0004AF0EE0FFF1FBB1F661F771F881F915029
:1015F0005040A9F79E3F510580F00C94510A0C947D
:101600009C0A5F3FE4F3983ED4F3869577956795FF
:10161000B795F795E7959F5FC1F7FE2B880F911D52
:101620009695879597F908950E942D0A880B990B36
:101630000895A1E21A2EAA1BBB1BFD010DC0AA1F13
:10164000BB1FEE1FFF1FA217B307E407F50720F02B
:10165000A21BB30BE40BF50B661F771F881F991FA6
:101660001A9469F760957095809590959B01AC01EF
:10167000BD01CF010895052E97FB1EF400940E9432
:10168000520B57FD07D00E94190B07FC03D04EF4F4
:101690000C94520B50954095309521953F4F4F4FEC
:1016A0005F4F089590958095709561957F4F8F4F0E
:1016B0009F4F0895EE0FFF1F881F8BBF0790F69175
:1016C000E02D19940E946D0BA59F900DB49F900D75
:1016D000A49F800D911D11240895A29FB001B39F76
:1016E000C001A39F700D811D1124911DB29F700D2B
:1016F000811D1124911D0895DC015D91552331F068
:10170000FB01019005160110E1F7B9F38095909562
:101710008A0F9B1F0895FB0151915523A9F0BF012A
:10172000DC014D9145174111E1F759F4CD010190CC
:10173000002049F04D9140154111C9F3FB014111C1
:0E174000EFCF81E090E001970895F894FFCF7D
:10174E000000803F0100000000B70221024E02049B
:10175E00037F025D0271020D0A006E616E00696EFA
:10176E0066006F76660020090A0B0C0D0068656C2A
:10177E007000436F6D6D616E64733A0D0A20202AFE
:10178E002068656C700D0A20202A204C45446F6E2F
:10179E000D0A20202A204C45446F66660D0A202033
:1017AE002A20696C6C756D203C70657263656E7471
:1017BE003E0D0A20202A2070696E73004C45446F3E
:1017CE006E004572726F723A20457870656374656B
:1017DE006420656E64206F66206C696E652061669C
:1017EE0074657220274C45446F6E27004C45446F3C
:1017FE006666004572726F723A2045787065637442
:10180E00656420656E64206F66206C696E6520616C
:10181E006674657220274C45446F66662700696CB6
:10182E006C756D004572726F723A2027696C6C751B
:10183E006D272065787065637473206578616374B5
:10184E006C79206F6E6520706F7369746976652090
:10185E0077686F6C652D6E756D626572656420615B
:10186E007267756D656E74206E6F74206772656138
:10187E00746572207468616E203130302E004572AE
:10188E00726F723A20457870656374656420656E78
:10189E0064206F66206C696E6520616674657220C7
:1018AE002770696E73270041392E414443203D2035
:1018BE00002F31303233203D2000562F3556203D3B
:1018CE0020006D562F353030306D5600202420000C
:1018DE005741524E494E473A20496E7075742062F8
:1018EE007566666572206F766572666C6F772E0010
:00000001FF
