:100000000C9424010C9445010C9445010C94450179
:100010000C9445010C9445010C9445010C94450148
:100020000C9445010C9445010C9445010C94450138
:100030000C9445010C9445010C9445010C94450128
:100040000C9445010C9445010C9445010C94450118
:100050000C9445010C9445010C9445010C94DC0171
:100060000C9445010C9445010C9445010C944501F8
:100070000C9445010C9445010C9445010C944501E8
:100080000C9445010C9445010C9445010C944501D8
:100090000C9445010C9445010C9445010C944501C8
:1000A0000C9445010C9445010C9445010C944501B8
:1000B0000C9445010C9445010C9445010C944501A8
:1000C0000C9445010C9445010C9445010C94450198
:1000D0000C9445010C9445010C9445010C94450188
:1000E0000C9445010C947A010C946B010C94A001C2
:1000F0000C9465010C9480010C948E010C94730196
:100100000C94AA010C94A5010C9484010C94920106
:100110000C949C010C948A010C9498010C946F012E
:100120000C94A6010C947701000022002500280001
:100130002B002E00310034000201000005010801EF
:100140000B0100002100240027002A002D003000B0
:10015000330001010000040107010A010000200032
:100160002300260029002C002F003200000100008F
:10017000030106010901050505050705080808082A
:10018000020202020A0A080804040404010101012F
:10019000010101010303030303030303040707072A
:1001A0000C0C0C0C0C0C0C0C0202020206060606CF
:1001B000060606060B0B0B0B0B0B0B0B010210209C
:1001C000200808102040102040800201020108048D
:1001D0000201010204081020408080402010080421
:1001E000020180040201804020100804020108047A
:1001F00002010102040810204080010204081020BE
:10020000408000000A0B02090C0D0E0807030401D0
:1002100000000000000000000000000000000000DE
:1002200000000000000000000000000000001211AB
:1002300010000000000000000000000000000000AE
:10024000000000000000000011241FBECFEFD1E22B
:10025000DEBFCDBF00E00CBF12E0A0E0B2E0EAE3F9
:10026000F6E000E00BBF02C007900D92A230B1078C
:10027000D9F722E0A2E0B2E001C01D92AC30B20793
:10028000E1F70E9426020C941B030C94000081509D
:10029000823108F05AC0E82FF0E08827ED5AFE4F6F
:1002A0008F4F0C9413037301770165016B016F018C
:1002B000A5017A01800184018A018E0192019801D1
:1002C0009C01A501A001A601AA01809180008F7761
:1002D000809380000895809180008F7DF9CF809178
:1002E0008000877FF5CF84B58F7784BD089584B56E
:1002F0008F7DFBCF8091B0008F778093B000089501
:100300008091B0008F7DF9CF809190008F7780939E
:1003100090000895809190008F7DF9CF809190009A
:10032000877FF5CF8091A0008F778093A0000895FC
:100330008091A0008F7DF9CF8091A000877FF5CFBD
:10034000809120018F778093200108958091200172
:100350008F7DF9CF80912001877FF5CF1F93CF93B9
:10036000DF93282F30E0F901EE5FFD4F8491F90112
:10037000E454FE4FD491F901EA58FE4FC491CC23C6
:10038000A9F0162F81110E944701EC2FF0E0EE0F2B
:10039000FF1FE85DFE4FA591B4918FB7F894EC91E3
:1003A000111108C0D095DE23DC938FBFDF91CF9170
:1003B0001F910895DE2BF8CF1F920F920FB60F9268
:1003C00011242F933F938F939F93AF93BF9380916B
:1003D000080290910902A0910A02B0910B0230919B
:1003E000070223E0230F2D3758F50196A11DB11DFB
:1003F000209307028093080290930902A0930A02B7
:10040000B0930B028091030290910402A091050227
:10041000B09106020196A11DB11D80930302909335
:100420000402A0930502B0930602BF91AF919F9181
:100430008F913F912F910F900FBE0F901F901895A5
:1004400026E8230F0296A11DB11DD2CF789484B562
:10045000826084BD84B5816084BD85B5826085BDC0
:1004600085B5816085BD80916E00816080936E004E
:100470001092810080918100826080938100809140
:1004800081008160809381008091800081608093F1
:1004900080008091B10084608093B1008091B000B1
:1004A00081608093B0008091910082608093910080
:1004B0008091910081608093910080919000816093
:1004C000809390008091A10082608093A100809130
:1004D000A10081608093A1008091A0008160809341
:1004E000A0008091210182608093210180912101EF
:1004F000816080932101809120018160809320019F
:1005000080917A00846080937A0080917A00826082
:1005100080937A0080917A00816080937A00809144
:100520007A00806880937A001092C100E9ECF1E0D3
:100530002491E3E8F1E08491882399F090E0880F1A
:10054000991FFC01EE5BFE4FA591B491FC01E85DA3
:10055000FE4F859194918FB7F894EC91E22BEC9338
:100560008FBFCFEBD1E0FE01249109E711E0F80144
:1005700084918823C9F090E0880F991FFC01EE5BFD
:10058000FE4FA591B491FC01E85DFE4F4591549159
:100590009FB7F8943C91822F809583238C93FA0126
:1005A0008081282B20839FBF609102028DE00E94F2
:1005B000AE0195E0E92E92E0F92EAA24A39420E062
:1005C000C22E20E0D22EF7018491FE01B490F801F2
:1005D0009490911011C08091000281111DC08093F0
:1005E0000002609102028DE00E94AE01C114D104AC
:1005F00051F30E940000E7CF81110E944701E92DCD
:10060000F0E0EE0FFF1FE45AFE4FA591B4918C91DC
:10061000B82209F381E0E3CF809102028A2580931A
:10062000020280E0DCCFEE0FFF1F881F8BBF079018
:0A063000F691E02D1994F894FFCF25
:02063A000100BD
:00000001FF
